{
  "contractName": "Coin",
  "abi": [
    {
      "inputs": [],
      "stateMutability": "nonpayable",
      "type": "constructor"
    },
    {
      "anonymous": false,
      "inputs": [
        {
          "indexed": false,
          "internalType": "address",
          "name": "from",
          "type": "address"
        },
        {
          "indexed": false,
          "internalType": "address",
          "name": "to",
          "type": "address"
        },
        {
          "indexed": false,
          "internalType": "uint256",
          "name": "amount",
          "type": "uint256"
        }
      ],
      "name": "sent",
      "type": "event"
    },
    {
      "inputs": [
        {
          "internalType": "address",
          "name": "",
          "type": "address"
        }
      ],
      "name": "balances",
      "outputs": [
        {
          "internalType": "uint256",
          "name": "",
          "type": "uint256"
        }
      ],
      "stateMutability": "view",
      "type": "function"
    },
    {
      "inputs": [],
      "name": "minter",
      "outputs": [
        {
          "internalType": "address",
          "name": "",
          "type": "address"
        }
      ],
      "stateMutability": "view",
      "type": "function"
    },
    {
      "inputs": [
        {
          "internalType": "address",
          "name": "receiver",
          "type": "address"
        },
        {
          "internalType": "uint256",
          "name": "amount",
          "type": "uint256"
        }
      ],
      "name": "mint",
      "outputs": [],
      "stateMutability": "nonpayable",
      "type": "function"
    },
    {
      "inputs": [
        {
          "internalType": "address",
          "name": "receiver",
          "type": "address"
        },
        {
          "internalType": "uint256",
          "name": "amount",
          "type": "uint256"
        }
      ],
      "name": "send",
      "outputs": [],
      "stateMutability": "nonpayable",
      "type": "function"
    }
  ],
  "bytecode": "0x608060405234801561001057600080fd5b50336000806101000a81548173ffffffffffffffffffffffffffffffffffffffff021916908373ffffffffffffffffffffffffffffffffffffffff16021790555061079b806100606000396000f3fe608060405234801561001057600080fd5b506004361061004c5760003560e01c8063075461721461005157806327e235e31461006f57806340c10f191461009f578063d0679d34146100bb575b600080fd5b6100596100d7565b604051610066919061044d565b60405180910390f35b61008960048036038101906100849190610499565b6100fb565b60405161009691906104df565b60405180910390f35b6100b960048036038101906100b49190610526565b610113565b005b6100d560048036038101906100d09190610526565b61029f565b005b60008054906101000a900473ffffffffffffffffffffffffffffffffffffffff1681565b60016020528060005260406000206000915090505481565b60008054906101000a900473ffffffffffffffffffffffffffffffffffffffff1673ffffffffffffffffffffffffffffffffffffffff163373ffffffffffffffffffffffffffffffffffffffff16146101a1576040517f08c379a0000000000000000000000000000000000000000000000000000000008152600401610198906105c3565b60405180910390fd5b80789f4f2726179a224501d762422c946590d9100000000000000081106101c757600080fd5b60008054906101000a900473ffffffffffffffffffffffffffffffffffffffff1673ffffffffffffffffffffffffffffffffffffffff163373ffffffffffffffffffffffffffffffffffffffff161461021f57600080fd5b789f4f2726179a224501d762422c946590d91000000000000000821061024457600080fd5b81600160008573ffffffffffffffffffffffffffffffffffffffff1673ffffffffffffffffffffffffffffffffffffffff16815260200190815260200160002060008282546102939190610612565b92505081905550505050565b600160003373ffffffffffffffffffffffffffffffffffffffff1673ffffffffffffffffffffffffffffffffffffffff16815260200190815260200160002054811115610321576040517f08c379a0000000000000000000000000000000000000000000000000000000008152600401610318906106da565b60405180910390fd5b80600160003373ffffffffffffffffffffffffffffffffffffffff1673ffffffffffffffffffffffffffffffffffffffff168152602001908152602001600020600082825461037091906106fa565b9250508190555080600160008473ffffffffffffffffffffffffffffffffffffffff1673ffffffffffffffffffffffffffffffffffffffff16815260200190815260200160002060008282546103c69190610612565b925050819055507f570e6727d8aecbd70b2b62942bafdd52df16512778cd1454a51e2e16487193863383836040516104009392919061072e565b60405180910390a15050565b600073ffffffffffffffffffffffffffffffffffffffff82169050919050565b60006104378261040c565b9050919050565b6104478161042c565b82525050565b6000602082019050610462600083018461043e565b92915050565b600080fd5b6104768161042c565b811461048157600080fd5b50565b6000813590506104938161046d565b92915050565b6000602082840312156104af576104ae610468565b5b60006104bd84828501610484565b91505092915050565b6000819050919050565b6104d9816104c6565b82525050565b60006020820190506104f460008301846104d0565b92915050565b610503816104c6565b811461050e57600080fd5b50565b600081359050610520816104fa565b92915050565b6000806040838503121561053d5761053c610468565b5b600061054b85828601610484565b925050602061055c85828601610511565b9150509250929050565b600082825260208201905092915050565b7f596f7520617265206e6f742061206d696e746572000000000000000000000000600082015250565b60006105ad601483610566565b91506105b882610577565b602082019050919050565b600060208201905081810360008301526105dc816105a0565b9050919050565b7f4e487b7100000000000000000000000000000000000000000000000000000000600052601160045260246000fd5b600061061d826104c6565b9150610628836104c6565b9250827fffffffffffffffffffffffffffffffffffffffffffffffffffffffffffffffff0382111561065d5761065c6105e3565b5b828201905092915050565b7f596f7520646f6e277420686176652074686174206d756368206d6f6e6579207460008201527f6f207472616e7366657200000000000000000000000000000000000000000000602082015250565b60006106c4602a83610566565b91506106cf82610668565b604082019050919050565b600060208201905081810360008301526106f3816106b7565b9050919050565b6000610705826104c6565b9150610710836104c6565b925082821015610723576107226105e3565b5b828203905092915050565b6000606082019050610743600083018661043e565b610750602083018561043e565b61075d60408301846104d0565b94935050505056fea264697066735822122070e1d4579d98afd14cf360db9717af460ca1ed0ce6cca56719c89a473d263e9664736f6c634300080d0033",
  "immutableReferences": {},
  "source": "// SPDX-License-Identifier: MIT\npragma solidity >=0.4.16 <0.9.0;\n\ncontract Coin {\n    // address also the data types in the solididty\n    address public minter;\n\n    // similar to dic in python compining two values\n    mapping (address => uint) public balances;\n\n    //\n    event sent(address from, address to, uint amount);\n\n    // Modifier That gives the rules for the function\n    modifier onlyMinter{\n        require(msg.sender == minter, \"You are not a minter\");\n        // You should finish with this symbol\n        _;\n    }\n\n    // Modifer for the greateThan\n    modifier graterThan(uint amount){\n        require(amount < 1e60);\n        _;\n    }\n\n\n    constructor(){\n        // return the wallet of the address\n        minter = msg.sender;\n    }\n\n    // ADDING the modifier here to the function without any special letter\n    function mint(address receiver, uint amount) public onlyMinter graterThan(amount) {\n        require(msg.sender == minter);\n        require(amount < 1e60);\n        balances[receiver] += amount;\n    }\n\n    function send(address receiver, uint amount) public {\n        // it is the condition for the upcoming event\n        require(amount <= balances[msg.sender],\"You don't have that much money to transfer\");\n\n        // Max and min the amount from the balances\n        balances[msg.sender] -= amount;\n        balances[receiver] += amount;\n\n        // calling the event\n        emit sent(msg.sender,receiver,amount);\n\n    }\n\n}\n\n// address - It is the public identity in the blockchain\n// Mapping - Data type that used to store information similar to list but holding two values, allow to\n            // get the value quickly using key\n// Event - When you call the event it causes the argments to be stored in the transacation' log \n// Emit - that the keyword for the calling the Event\n// Msg - allows us to access some special variables that are available for us from the blockchain\n// Require - convenience functions in solidity\n",
  "sourcePath": "/Users/vithushan/Google Online/Blockchain/Truffle Project/contracts/Coin.sol",
  "compiler": {
    "name": "solc",
    "version": "0.8.13+commit.abaa5c0e.Emscripten.clang"
  },
  "schemaVersion": "3.4.7",
  "updatedAt": "2022-05-20T13:18:26.317Z",
  "devdoc": {
    "kind": "dev",
    "methods": {},
    "version": 1
  },
  "userdoc": {
    "kind": "user",
    "methods": {},
    "version": 1
  }
}