{
  "contractName": "Game",
  "abi": [
    {
      "inputs": [
        {
          "internalType": "address",
          "name": "",
          "type": "address"
        }
      ],
      "name": "Players",
      "outputs": [
        {
          "internalType": "address",
          "name": "playerAddress",
          "type": "address"
        },
        {
          "internalType": "string",
          "name": "firstName",
          "type": "string"
        },
        {
          "internalType": "enum Game.Level",
          "name": "playerLevel",
          "type": "uint8"
        },
        {
          "internalType": "string",
          "name": "lastName",
          "type": "string"
        }
      ],
      "stateMutability": "view",
      "type": "function"
    },
    {
      "inputs": [],
      "name": "playerCount",
      "outputs": [
        {
          "internalType": "uint256",
          "name": "",
          "type": "uint256"
        }
      ],
      "stateMutability": "view",
      "type": "function"
    },
    {
      "inputs": [
        {
          "internalType": "string",
          "name": "firstName",
          "type": "string"
        },
        {
          "internalType": "string",
          "name": "lastName",
          "type": "string"
        }
      ],
      "name": "addPlayer",
      "outputs": [],
      "stateMutability": "nonpayable",
      "type": "function"
    },
    {
      "inputs": [
        {
          "internalType": "address",
          "name": "playerAddress",
          "type": "address"
        }
      ],
      "name": "getPlayerLevel",
      "outputs": [
        {
          "internalType": "enum Game.Level",
          "name": "",
          "type": "uint8"
        }
      ],
      "stateMutability": "view",
      "type": "function"
    }
  ],
  "bytecode": "0x60806040526000805534801561001457600080fd5b506109de806100246000396000f3fe608060405234801561001057600080fd5b506004361061004c5760003560e01c80632bff8dd614610051578063302bcc571461008457806334b735a1146100a25780635cb119a9146100d2575b600080fd5b61006b60048036038101906100669190610528565b6100ee565b60405161007b9493929190610674565b60405180910390f35b61008c61025b565b60405161009991906106e0565b60405180910390f35b6100bc60048036038101906100b79190610528565b610261565b6040516100c991906106fb565b60405180910390f35b6100ec60048036038101906100e7919061084b565b6102ba565b005b60016020528060005260406000206000915090508060000160009054906101000a900473ffffffffffffffffffffffffffffffffffffffff1690806001018054610137906108f2565b80601f0160208091040260200160405190810160405280929190818152602001828054610163906108f2565b80156101b05780601f10610185576101008083540402835291602001916101b0565b820191906000526020600020905b81548152906001019060200180831161019357829003601f168201915b5050505050908060020160009054906101000a900460ff16908060030180546101d8906108f2565b80601f0160208091040260200160405190810160405280929190818152602001828054610204906108f2565b80156102515780601f1061022657610100808354040283529160200191610251565b820191906000526020600020905b81548152906001019060200180831161023457829003601f168201915b5050505050905084565b60005481565b6000600160008373ffffffffffffffffffffffffffffffffffffffff1673ffffffffffffffffffffffffffffffffffffffff16815260200190815260200160002060020160009054906101000a900460ff169050919050565b60405180608001604052803373ffffffffffffffffffffffffffffffffffffffff1681526020018381526020016002808111156102fa576102f96105fd565b5b815260200182815250600160003373ffffffffffffffffffffffffffffffffffffffff1673ffffffffffffffffffffffffffffffffffffffff16815260200190815260200160002060008201518160000160006101000a81548173ffffffffffffffffffffffffffffffffffffffff021916908373ffffffffffffffffffffffffffffffffffffffff16021790555060208201518160010190805190602001906103a5929190610413565b5060408201518160020160006101000a81548160ff021916908360028111156103d1576103d06105fd565b5b021790555060608201518160030190805190602001906103f2929190610413565b5090505060016000808282546104089190610952565b925050819055505050565b82805461041f906108f2565b90600052602060002090601f0160209004810192826104415760008555610488565b82601f1061045a57805160ff1916838001178555610488565b82800160010185558215610488579182015b8281111561048757825182559160200191906001019061046c565b5b5090506104959190610499565b5090565b5b808211156104b257600081600090555060010161049a565b5090565b6000604051905090565b600080fd5b600080fd5b600073ffffffffffffffffffffffffffffffffffffffff82169050919050565b60006104f5826104ca565b9050919050565b610505816104ea565b811461051057600080fd5b50565b600081359050610522816104fc565b92915050565b60006020828403121561053e5761053d6104c0565b5b600061054c84828501610513565b91505092915050565b61055e816104ea565b82525050565b600081519050919050565b600082825260208201905092915050565b60005b8381101561059e578082015181840152602081019050610583565b838111156105ad576000848401525b50505050565b6000601f19601f8301169050919050565b60006105cf82610564565b6105d9818561056f565b93506105e9818560208601610580565b6105f2816105b3565b840191505092915050565b7f4e487b7100000000000000000000000000000000000000000000000000000000600052602160045260246000fd5b6003811061063d5761063c6105fd565b5b50565b600081905061064e8261062c565b919050565b600061065e82610640565b9050919050565b61066e81610653565b82525050565b60006080820190506106896000830187610555565b818103602083015261069b81866105c4565b90506106aa6040830185610665565b81810360608301526106bc81846105c4565b905095945050505050565b6000819050919050565b6106da816106c7565b82525050565b60006020820190506106f560008301846106d1565b92915050565b60006020820190506107106000830184610665565b92915050565b600080fd5b600080fd5b7f4e487b7100000000000000000000000000000000000000000000000000000000600052604160045260246000fd5b610758826105b3565b810181811067ffffffffffffffff8211171561077757610776610720565b5b80604052505050565b600061078a6104b6565b9050610796828261074f565b919050565b600067ffffffffffffffff8211156107b6576107b5610720565b5b6107bf826105b3565b9050602081019050919050565b82818337600083830152505050565b60006107ee6107e98461079b565b610780565b90508281526020810184848401111561080a5761080961071b565b5b6108158482856107cc565b509392505050565b600082601f83011261083257610831610716565b5b81356108428482602086016107db565b91505092915050565b60008060408385031215610862576108616104c0565b5b600083013567ffffffffffffffff8111156108805761087f6104c5565b5b61088c8582860161081d565b925050602083013567ffffffffffffffff8111156108ad576108ac6104c5565b5b6108b98582860161081d565b9150509250929050565b7f4e487b7100000000000000000000000000000000000000000000000000000000600052602260045260246000fd5b6000600282049050600182168061090a57607f821691505b60208210810361091d5761091c6108c3565b5b50919050565b7f4e487b7100000000000000000000000000000000000000000000000000000000600052601160045260246000fd5b600061095d826106c7565b9150610968836106c7565b9250827fffffffffffffffffffffffffffffffffffffffffffffffffffffffffffffffff0382111561099d5761099c610923565b5b82820190509291505056fea26469706673582212203c4576b302830f4e3406d1a8e7423e1b8c897d2af1862b915f1ab7fe8cf9c15264736f6c634300080d0033",
  "immutableReferences": {},
  "source": "// SPDX-License-Identifier: MIT\npragma solidity >=0.4.16 <0.9.0;\n\ncontract Game {\n    // We can't  get the player count in solidity\n    uint public playerCount = 0;\n\n    //Creating an array things in Players\n    // Player[] public Players;\n\n    // Using mapping \n    mapping(address => Player) public Players;\n\n    enum Level{ Novince, Intermediate, Advanced}\n\n    // Creating a struct that contains some certains things\n    struct Player {\n        address playerAddress;\n        string firstName;\n        Level playerLevel;\n        string lastName;\n    }\n\n    // Adding the memory that get it from memory\n    function addPlayer(string memory firstName, string memory lastName) public {\n        // Players.push(Player(firstName,Level.Advanced,lastName));\n        Players[msg.sender] = Player(msg.sender, firstName, Level.Advanced, lastName);\n        playerCount += 1;\n    }\n\n    function getPlayerLevel(address playerAddress) public view returns (Level) {\n        return Players[playerAddress].playerLevel;\n    }\n}",
  "sourcePath": "/Users/vithushan/Google Online/Blockchain/Truffle Project/contracts/Game.sol",
  "compiler": {
    "name": "solc",
    "version": "0.8.13+commit.abaa5c0e.Emscripten.clang"
  },
  "schemaVersion": "3.4.7",
  "updatedAt": "2022-05-20T13:18:26.348Z",
  "devdoc": {
    "kind": "dev",
    "methods": {},
    "version": 1
  },
  "userdoc": {
    "kind": "user",
    "methods": {},
    "version": 1
  }
}